:1000000000308A0019280000223084008313000881
:10001000031918280130F800F701F70B0D28F80B29
:100020000C284A30F700F70B13281628800B0A28F3
:10003000080003081F398300A00183161F149F14B2
:100040001F159F1107309C00831305148312051C94
:100050003A28A008031D3A288316061083120614B6
:1000600083168610831286148316061183120615D2
:100070000130A007831605148312051C7C28200B71
:100080007C28200B7C288316061083120614831606
:100090008610831286148316061183120615023009
:1000A000A100FA30A2000420A10B512883160610EB
:1000B000831206108316861083128610831606118B
:1000C000831206110230A100FA30A2000420A10B15
:1000D0006428831605148312051C7B2883160610DA
:1000E000831206108316861083128610831606115B
:1000F000831206117C284128831685148312851CDF
:100100008D2883160610831206108316861083121C
:1001100086148316061183120611831625286300A0
:02400E00713F00
:00000001FF
;PIC16F877A
;CRC=0EDF  CREATED="09-ago.-18 08:02"
