:1000000000308A0069280000831608118312081541
:10001000831608108312081483168811831288111E
:1000200083168810831288108A110A1276282230CB
:1000300084008313000803192A280230F800F7010E
:10004000F70B2028F80B1F289730F700F70B26280E
:10005000800B1D28080083160811831208158316CB
:1000600088118312881583160810831208148316CA
:10007000881083128814080083160811831208114F
:1000800083160810831208108316881183128815AE
:1000900083168810831288148A110A128628831600
:1000A000881183128815831608108312081483168A
:1000B00008118312081183168810831288100830E3
:1000C000A100FA30A2001720A10B61288A110A12A0
:1000D000962803081F39830083161F149F141F15C9
:1000E0009F1107309C008313831204280830A1005D
:1000F000FA30A2001720A10B78282B200230A10093
:10010000FA30A2001720A10B80283C280830A1005B
:10011000FA30A2001720A10B88282B200230A10062
:10012000FA30A2001720A10B90284F282B20023074
:10013000A100FA30A2001720A10B992875286300AE
:02400E00723FFF
:00000001FF
;PIC16F877A
;CRC=EA59  CREATED="19-ago.-18 14:00"
