:1000000000308A0029280000213084008313000872
:10001000031917280230F800F701F70B0D28F80B29
:100020000C289730F700F70B1328800B0A280800DC
:100030000830A202031C28282230840083130310F6
:10004000800C00080319282826280000800B25288A
:10005000080003081F39830083161F149F141F15FF
:100060009F1107309C00831306118312061502307E
:10007000A10004200330A100C630A2001820A10B6B
:100080003C288316061183120611831686118312EB
:1000900086150230A1000420831686118312861172
:1000A00083160612831206160230A100F830A20051
:1000B0001820A10B562883160612831206128316E7
:1000C0008612831286160130A10004200330A1009D
:1000D000C630A2001820A10B68288316861283124E
:1000E000861283160613831206170130A10004201E
:1000F0006430A200182083160613831206131330EF
:0A010000A1000420831634286300D8
:02400E00723FFF
:00000001FF
;PIC16F877A
;CRC=AC1A  CREATED="16-ago.-18 19:03"
