:1000000000308A0029280000213084008313000872
:10001000031917280230F800F701F70B0D28F80B29
:100020000C289730F700F70B1328800B0A280800DC
:100030000830A202031C28282230840083130310F6
:10004000800C00080319282826280000800B25288A
:10005000080003081F39830083161F149F141F15FF
:100060009F1107309C0083138312A0012008323CAB
:10007000031C932883160611831206150230A10073
:1000800004200330A100C630A2001820A10B432891
:1000900083160611831206118316861183128615A4
:1000A0000330A100C630A2001820A10B52288316ED
:1000B00086118312861183160612831206160430E7
:1000C000A100B030A2001820A10B612883160612EF
:1000D0008312061283168612831286160130A1003F
:1000E00004200330A100C630A2001820A10B732801
:1000F000831686128312861283160613831206173E
:100100000130A10004200330A100C630A200182055
:10011000A10B852883160613831206131330A10042
:100120000420A00A3628A0012008193C031CEE2850
:1001300083160611831206150230A1000420033035
:10014000A100C630A2001820A10BA1288316061119
:100150008312061183168611831286150330A100BF
:10016000C630A2001820A10BB02883168611831276
:10017000861183160612831206160330A100C630BC
:10018000A2001820A10BBF288316061283120612A4
:1001900083168612831286160130A10004200330D4
:1001A000A100C630A2001820A10BD1288316861208
:1001B0008312861283160613831206170430A100D9
:1001C000DF30A2001820A10BE0288316061383124B
:1001D00006131330A1000420A00A9428A0012008CF
:1001E000323C031C4B29831606118312061502307C
:1001F000A10004200230A1008330A2001820A10B2E
:10020000FC288316061183120611831686118312A9
:1002100086150130A10004206430A2001820831646
:100220008611831286118316061283120616023077
:10023000A10004200330A100C630A2001820A10BA9
:100240001C29831606128312061283168612831245
:1002500086160130A10004200330A100C630A200A0
:100260001820A10B2E29831686128312861283165C
:100270000613831206170430A100DF30A2001820F5
:10028000A10B3D2983160613831206131330A10018
:100290000420A00AEF28A0012008193C031CA7296C
:1002A0000230A10004200230A1008330A2001820F7
:1002B000A10B552983160611831206118316861188
:1002C000831286150130A10004206430A20018209A
:1002D0008316861183128611831606128312061660
:1002E0000230A10004200330A100C630A200182073
:1002F000A10B752983160612831206128316861225
:10030000831286160130A10004200330A100C630FC
:10031000A2001820A10B8729831686128312861249
:1003200083160613831206170130A1000420033040
:10033000A100C630A2001820A10B9929831606132C
:10034000831206131330A1000420A00A4C29A00137
:100350002008323C031CFD29831606118312061562
:100360000230A10004200330A100C630A2001820F2
:10037000A10BB52983160611831206118316861167
:10038000831286150230A100042083168611831281
:10039000861183160612831206160230A100F83069
:1003A000A2001820A10BCF29831606128312061271
:1003B00083168612831286160130A10004200330B2
:1003C000A100C630A2001820A10BE12983168612D5
:1003D0008312861283160613831206170130A100BA
:1003E00004206430A200182083160613831206131B
:0C03F0001330A1000420A00AA82963001B
:02400E00723FFF
:00000001FF
;PIC16F877A
;CRC=231C  CREATED="18-ago.-18 15:10"
