:1000000000308A0029280000213084008313000872
:10001000031917280230F800F701F70B0D28F80B29
:100020000C289730F700F70B1328800B0A280800DC
:100030000830A202031C28282230840083130310F6
:10004000800C00080319282826280000800B25288A
:10005000080003081F39830083161F149F141F15FF
:100060009F1107309C0083138312A0012008313CAC
:10007000031C71288316061083120614831686103B
:1000800083128614831606118312061583168611B1
:100090008312861583160612831206160130A100FC
:1000A00004200330A100C630A2001820A10B532861
:1000B000831606108312061083168610831286108C
:1000C0008316061183120611831686118312861178
:1000D00083160612831206121330A1000420A00A10
:1000E0003628A00120080E3C031CB42883160610F5
:1000F0008312061483168610831286148316061143
:100100008312061583168611831286150130A1000D
:1001100004200330A100C630A2001820A10B8B28B8
:10012000831606108312061083168610831286101B
:100130008316061183120611831686118312861107
:1001400083160612831206160330A100C630A200E1
:100150001820A10BA628831606128312061213304C
:10016000A1000420A00A7228A00120080E3C031C54
:10017000FA2883160610831206148316861083123B
:1001800086148316061183120615831686118312B0
:1001900086150130A10004200330A100C630A20062
:1001A0001820A10BCE288316061083120610831682
:1001B0008610831286108316061183120611831689
:1001C00086118312861183160612831206160130D9
:1001D000A10004200330A100C630A2001820A10B0A
:1001E000EC2883160612831206121330A100042095
:1001F000A00AB528A00120080E3C031C3D29831647
:100200000610831206148316861083128614831632
:100210000611831206158316861183128615013086
:10022000A10004200330A100C630A2001820A10BB9
:100230001429831606108312061083168610831263
:1002400086108316061183120611831686118312F7
:10025000861183160612831206160330A100C630DB
:10026000A2001820A10B2F29831606128312061252
:100270001330A1000420A00AFB28A00120081D3C87
:10028000031C872983160610831206148316861012
:100290008312861483160611831206150130A100FD
:1002A00004200330A100C630A2001820A10B53295E
:1002B000831606108312061083168610831286108A
:1002C0008316061183120611831686118312861572
:1002D0000330A100C630A2001820A10B6A298316A2
:1002E00086118312861183160612831206160330B6
:1002F000A100C630A2001820A10B7929831606128E
:10030000831206121330A1000420A00A3E29A00186
:1003100020081D3C031CD4298316061083120614E2
:10032000831686108312861483160611831206150F
:100330000130A10004200330A100C630A200182023
:10034000A10B9D29831606108312061083168610B2
:1003500083128610831606118312061183168611E6
:10036000831286150230A10004200330A100C6309C
:10037000A2001820A10BB7298316861183128611BB
:1003800083160612831206160330A100C630A2009F
:100390001820A10BC62983160612831206121330E9
:1003A000A1000420A00A8829A0012008313C031CD8
:1003B000312A83160610831206140130A10004208E
:1003C0006430A200182083160610831206108316CC
:1003D0000612831206160130A10004200330A1008A
:1003E000C630A2001820A10BF02983160612831232
:1003F000061283168610831286140130A100042091
:100400000330A100C630A2001820A10B022A8316D7
:100410008610831286108316061183120615033088
:10042000A100C630A2001820A10B112A83160611C4
:100430008312061183168611831286150130A100DE
:1004400004200330A100C630A2001820A10B232AEB
:1004500083168611831286111330A1000420A00A8E
:10046000D529A00120081D3C031C8B2A83160610E9
:10047000831206140130A10004206430A200182069
:1004800083160610831206108316061283120616B0
:100490000330A100C630A2001820A10B4A2A8316FF
:1004A00006128312061283168610831286140130F8
:1004B000A10004200330A100C630A2001820A10B27
:1004C0005C2A831686108312861083160611831207
:1004D00006150330A100C630A2001820A10B6B2A1C
:1004E0008316061183120611831686118312861550
:1004F0000130A10004200330A100C630A200182062
:10050000A10B7D2A83168611831286111330A10058
:100510000420A00A322AA00120081D3C031CE42A62
:1005200083160610831206140130A10004206430E3
:10053000A2001820831606108312061083160612D6
:10054000831206160330A100C630A2001820A10BAA
:10055000A42A8316061283120612831686108312AB
:1005600086140130A10004200330A100C630A2008F
:100570001820A10BB62A83168610831286108316C4
:100580000611831206150130A10004206430A20078
:100590001820831606118312061183168611831202
:1005A00086150130A10004200330A100C630A2004E
:1005B0001820A10BD62A83168611831286111330B8
:1005C000A1000420A00A8C2AA00120081D3C031CC5
:1005D0003D2B83160610831206140230A10004205E
:1005E0006430A200182083160610831206108316AA
:1005F0000612831206160330A100C630A20018208E
:10060000A10BFD2A8316061283120612831686108A
:10061000831286140130A10004200330A100C630EB
:10062000A2001820A10B0F2B8316861083128610B0
:1006300083160611831206150130A10004206430D0
:10064000A200182083160611831206118316861144
:10065000831286150130A10004200330A100C630AA
:10066000A2001820A10B2F2B83168611831286114E
:100670001330A1000420A00AE52AA00120081D3C97
:10068000031C972B83160610831206140230A10058
:1006900004206430A200182083160610831206106E
:1006A00083160612831206160330A100C630A2007C
:1006B0001820A10B562B83160612831206128316DE
:1006C0008610831286140330A100EB30A20018209C
:1006D000A10B652B831686108312861083160611D4
:1006E000831206150130A10004200330A100EB3075
:1006F000A2001820A10B772B831606118312061176
:1007000083168611831286150130A1000420033060
:10071000A100C630A2001820A10B892B83168611D8
:10072000831286111330A1000420A00A3E2BA001E1
:1007300020081D3C031CF42B83160610831206149C
:100740000230A10004206430A20018208316061095
:100750008312061083160612831206160130A100BA
:1007600004200330A100C630A2001820A10BB32B37
:1007700083160612831206128316861083128614BD
:100780000330A100EB30A2001820A10BC22B83166E
:100790008610831286108316061183120615013007
:1007A000A10004200330A100EB30A2001820A10B0F
:1007B000D42B831606118312061183168611831219
:1007C00086150130A10004200330A100C630A2002C
:1007D0001820A10BE62B8316861183128611133085
:1007E000A1000420A00A982BA0012008273C031C8C
:1007F000522C83160610831206140130A100042027
:100800000330A100C630A2001820A10B022C8316D1
:100810000610831206108316061283120616033082
:10082000A100C630A2001820A10B112C83160612BD
:100830008312061283168610831286140130A100DB
:1008400004200330A100C630A2001820A10B232CE5
:1008500083168610831286108316061183120615DE
:100860000430A100DF30A2001820A10B322C831627
:100870000611831206118316861183128615013024
:10088000A10004200330A100C630A2001820A10B53
:10089000442C83168611831286111330A100042084
:1008A000A00AF52BA00120080E3C031CB32C8316D4
:1008B0000610831206140130A10004200330A100A9
:1008C000C630A2001820A10B602C831606108312DC
:1008D000061083160612831206160130A1000420AA
:1008E0000330A100C630A2001820A10B722C831681
:1008F00006128312061283168610831286140130A4
:10090000A10004200330A100C630A2001820A10BD2
:10091000842C831686108312861083160611831288
:1009200006150430A100DF30A2001820A10B932C83
:1009300083160611831206118316861183128615FB
:100940000130A10004200330A100C630A20018200D
:10095000A10BA52C83168611831286111330A100DA
:100960000420A00A532CA00120080E3C031C112DCA
:1009700083160610831206140130A10004200330F0
:10098000A100C630A2001820A10BC12C83160610AE
:100990008312061083160612831206160330A10076
:1009A000C630A2001820A10BD02C83160612831289
:1009B000061283168610831286140130A1000420CB
:1009C0000330A100C630A2001820A10BE22C831630
:1009D00086108312861083160611831206150430C2
:1009E000A100DF30A2001820A10BF12C8316061104
:1009F0008312061183168611831286150130A10019
:100A000004200330A100C630A2001820A10B032D42
:100A100083168611831286111330A1000420A00AC8
:100A2000B42CA00120080E3C031C722D8316061066
:100A3000831206140130A10004200330A100C63047
:100A4000A2001820A10B1F2D83160610831206107A
:100A500083160612831206160130A100042003300B
:100A6000A100C630A2001820A10B312D831606125A
:100A70008312061283168610831286140130A10099
:100A800004200330A100C630A2001820A10B432D82
:100A9000831686108312861083160611831206159C
:100AA0000430A100DF30A2001820A10B522D8316C4
:100AB00006118312061183168611831286150130E2
:100AC000A10004200330A100C630A2001820A10B11
:100AD000642D83168611831286111330A100042021
:100AE000A00A122DA00120080E3C031CD02D831655
:100AF0000610831206140130A10004200330A10067
:100B0000C630A2001820A10B802D83160610831278
:100B1000061083160612831206160330A100C63093
:100B2000A2001820A10B8F2D831606128312061225
:100B300083168610831286140130A100042003302E
:100B4000A100C630A2001820A10BA12D831686108B
:100B50008312861083160611831206150430A10035
:100B6000DF30A2001820A10BB02D831606118312CE
:100B7000061183168611831286150130A100042008
:100B80000330A100C630A2001820A10BC22D83168D
:100B90008611831286111330A1000420A00A732D40
:040BA0003528630091
:02400E00723FFF
:00000001FF
;PIC16F877A
;CRC=D572  CREATED="17-jul.-18 23:23"
