:1000000001308A002C2900008E30F7002908F80002
:100010002808F900FA01F808031D18287908F800E3
:10002000F9010830F702F808031D1828F701202805
:100030000310F81B1F28F90DF80DF7031828F81303
:100040008A110A1261292C080319E828B80030081F
:100050000319E828B802031C32287F30B8070318B8
:10006000E82838288130B802031CE8280319E8285A
:100070003808F700F801F901FA01B7012D08B600B8
:10008000B6172E08B5002F08B4001930B800330891
:10009000B40203185B280130B50203185B28B602CE
:1000A00003185B28B70203185B28B70AB60AB50A1B
:1000B0003308B4078D283208B502031876280130BA
:1000C000B60203187628B70203187628B70AB60ACC
:1000D0003208B5073308B407031C8D28B50A031D81
:1000E0008D28B60A031D8D28B70A8D28310880385F
:1000F000B60203188C280130B70203188C28B70AFF
:1001000031088038B6073208B507031C6A28B60ADA
:10011000031D6A28B70A6A287A14B80B90289B280E
:100120000310B40DB50DB60DB70D0310FA0DF90D92
:10013000F80DB90D4728391CA3280310F80CF90C49
:10014000FA0CB90CA628F7030319E828B91BCF2825
:100150000310B40DB50DB60DB70D3308B402031876
:10016000BB280130B5020318BB28B6020318BB2810
:10017000B702031CDE283208B5020318C628013076
:10018000B6020318C628B702031CDE2831088038DF
:10019000B6020318CF280130B702031CDE28FA0A82
:1001A000031DDE28F90A031DDE28F80A031DDE28D8
:1001B000F70A0319E828F80CF90CFA0C2D08B80016
:1001C0003108B806B81FE628F817EC28F813EC2811
:1001D000F701F801F901FA0108002908B0002D081B
:1001E000B006B01FF82803110310A91B03142B2914
:1001F0002908B0002C08B1002808B102031906290B
:10020000B01F2B290308013A83002B292D08B100C8
:100210002908B10203191229B01F2B290308013A3A
:1002200083002B292E08B1002A08B10203191E29C8
:10023000B01F2B290308013A83002B292F08B10096
:100240002B08B10203192A29B01F2B290308013AF0
:1002500083002B290310080003081F39830083162D
:100260001F149F141F159F1107309C0083138530A6
:100270008312900083160610831206140630F700CE
:10028000F70B402900008316061083120610831610
:1002900086148312861C47298E018F018E018316D6
:1002A0008614831286184F290F08FA000E08F700EB
:1002B0000F087A02031D54297708A8007A08A900BC
:1002C00004287A08A7007908A6007808A50077080E
:1002D000A4002708AF002608AE002508AD002408BA
:1002E000AC00B301B201B1018030B00023207A0824
:1002F000AB007908AA007808A9007708A8007A0856
:10030000AF007908AE007808AD007708AC00333054
:10031000B300B2006930B1008330B00023207A0806
:10032000A3007908A2007808A1007708A00023089C
:10033000AB002208AA002108A9002008A800AF01EC
:10034000AE010C30AD008430AC00ED20031CC029A0
:1003500083168613831286138316061383120613DD
:1003600083168612831286128316061283120612D1
:1003700083168611831286118316061183120611C5
:100380002308AB002208AA002108A9002008A80021
:10039000AF01AE017030AD008330AC00ED20031C26
:1003A000E929831686138312861783160613831290
:1003B0000613831686128312861283160612831280
:1003C0000612831686118312861183160611831274
:1003D00006112308AB002208AA002108A900200862
:1003E000A800AF01AE014830AD008330AC00ED2075
:1003F000031C122A8316861383128617831606138C
:10040000831206178316861283128612831606122B
:100410008312061283168611831286118316061123
:10042000831206112308AB002208AA002108A900A4
:100430002008A800AF01AE012030AD008330AC0031
:10044000ED20031C3B2A831686138312861783161E
:1004500006138312061783168612831286168316D6
:1004600006128312061283168611831286118316D2
:100470000611831206112308AB002208AA002108E6
:10048000A9002008A800AF01AE017030AD00823095
:10049000AC00ED20031C642A831686138312861792
:1004A0008316061383120617831686128312861686
:1004B000831606128312061683168611831286117E
:1004C00083160611831206112308AB002208AA0026
:1004D0002108A9002008A800AF01AE012030AD001E
:1004E0008230AC00ED20031C8D2A83168613831204
:1004F0008617831606138312061783168612831235
:100500008616831606128312061683168611831228
:10051000861583160611831206112308AB002208E4
:10052000AA002108A9002008A800AF01AE012030D0
:10053000AD008130AC00ED20031CB62A8316861373
:1005400083128617831606138312061783168612E4
:1005500083128616831606128312061683168611D8
:100560008312861583160611831206153A29630035
:02400E00723FFF
:00000001FF
;PIC16F877A
;CRC=CE6E  CREATED="30-jul.-18 10:13"
