:02000000722864
:1000060083120313F101F20100307202031D0D2861
:10001600323071020318272806140230FC0008301B
:10002600FD00FD0B1428FC0B1428000006101930E7
:10003600FC00EE30FD00FD0B1E28FC0B1E28000008
:0A004600F10A0319F20A0728080066
:1000500083120313F101F20100307202031D3228F2
:100060003230710203184C2806140330FC00DA30D9
:10007000FD00FD0B3928FC0B392800000610183054
:10008000FC001C30FD00FD0B4328FC0B4328000046
:0A009000F10A0319F20A2C280800F7
:10009A0083120313F101F20100307202031D572883
:1000AA00323071020318712806140230FC00F13054
:1000BA00FD00FD0B5E28FC0B5E2800000000061008
:1000CA001930FC000530FD00FD0B6928FC0B69287E
:0A00DA00F10A0319F20A5128080088
:1000E40083160313860103200B30FB002630FC002B
:1000F4005D30FD00FD0B7C28FC0B7C28FB0B7C2871
:10010400000000004D200B30FB002630FC005D3069
:10011400FD00FD0B8B28FC0B8B28FB0B8B280000B0
:08012400000028207528952831
:02400E004A2F37
:00000001FF
