:1000000000308A0029280000223084008313000871
:10001000031917280230F800F701F70B0D28F80B29
:100020000C289730F700F70B1328800B0A280800DC
:100030000830A202031C28282230840083130310F6
:10004000800C00080319282826280000800B25288A
:10005000080003081F39830083161F149F141F15FF
:100060009F1107309C0083138312A0012008053CD8
:10007000031C8B2883160611831206150230A2007A
:1000800004200330A100C630A2001820A10B432891
:1000900083160611831206118316861183128615A4
:1000A0000230A20004208316861183128611831663
:1000B0000612831206160230A100F830A2001820A2
:1000C000A10B5D2883160612831206128316861270
:1000D000831286160130A20004200330A100C6302E
:1000E000A2001820A10B6F28831686128312861295
:1000F00083160613831206170130A2000420643011
:10010000A200182083160613831206131330A200D0
:100110000420A00A362883160811831208158316B6
:10012000081083120814831688118312881183160D
:10013000881083128810831685148312851C0C295D
:1001400083160811831208158316881183128815E7
:1001500083160810831208148316881083128814DB
:100160000230A100FA30A2000420A10BB2288316AD
:1001700008118312081183160810831208108316C1
:10018000881183128815831688108312881404300E
:10019000A100FA30A2000420A10BC92883168811FF
:1001A0008312881583160810831208148316081109
:1001B0008312081183168810831288100330A1005F
:1001C000FA30A2000420A10BE02883160811831244
:1001D0000815831688118312881583160810831258
:1001E000081483168810831288140230A100FA3094
:1001F000A2000420A10BF72883160811831208150A
:10020000831608108312081483168811831288112C
:100210008316881083128810831605148312051C18
:10022000832B8316081183120815831688118312F5
:1002300088158316081083120814831688108312F9
:1002400088140230A100FA30A2000420A10B232957
:1002500083160811831208118316081083120810E0
:1002600083168811831288158316881083128814C8
:10027000FA30A20004208316081183120815831691
:1002800088118312881583160810831208148316A8
:100290008810831288140230A100FA30A2000420D2
:1002A000A10B4D29A0012008323C031CB029831664
:1002B0000611831206150230A20004200330A100AB
:1002C000C630A2001820A10B6029831606118312E4
:1002D000061183168611831286150330A100C630DD
:1002E000A2001820A10B6F29831686118312861194
:1002F00083160612831206160430A100B030A20045
:100300001820A10B7E29831606128312061283166B
:100310008612831286160130A20004200330A10049
:10032000C630A2001820A10B9029831686128312D2
:10033000861283160613831206170130A2000420CA
:100340000330A100C630A2001820A10BA2298316F9
:100350000613831206131330A2000420A00A5329A7
:10036000A0012008193C031C0B2A831606118312D6
:1003700006150230A20004200330A100C630A200FE
:100380001820A10BBE2983160611831206118316AD
:100390008611831286150330A100C630A2001820F2
:1003A000A10BCD298316861183128611831606129E
:1003B000831206160330A100C630A2001820A10B3C
:1003C000DC29831606128312061283168612831204
:1003D00086160130A20004200330A100C630A2001E
:1003E0001820A10BEE29831686128312861283161B
:1003F0000613831206170430A100DF30A200182074
:10040000A10BFD2983160613831206131330A200D5
:100410000420A00AB129A0012008643C031C682A1A
:1004200083160611831206150230A2000420023042
:10043000A1008330A2001820A10B192A83160611EF
:100440008312061183168611831286150130A200CD
:1004500004206430A20018208316861183128611AE
:1004600083160612831206160230A20004200330FF
:10047000A100C630A2001820A10B392A831606124B
:100480008312061283168612831286160130A2008A
:1004900004200330A100C630A2001820A10B4B2A73
:1004A000831686128312861283160613831206178A
:1004B0000430A100DF30A2001820A10B5A2A8316B5
:1004C0000613831206131330A2000420A00A0C2A7C
:1004D000A0012008193C031CC42A0230A2000420F9
:1004E0000230A1008330A2001820A10B722A8316CB
:1004F00006118312061183168611831286150130A8
:10050000A20004206430A2001820831686118312F2
:10051000861183160612831206160230A2000420EA
:100520000330A100C630A2001820A10B922A831626
:100530000612831206128316861283128616013063
:10054000A20004200330A100C630A2001820A10B95
:10055000A42A831686128312861283160613831228
:1005600006170130A20004200330A100C630A2000B
:100570001820A10BB62A8316061383120613133014
:10058000A2000420A00A692AA0012008193C031C2B
:100590001D2B0230A20004200230A1008330A200F3
:1005A0001820A10BCE2A831606118312061183167A
:1005B0008611831286150130A20004206430A20047
:1005C0001820831686118312861183160612831251
:1005D00006160230A100F830A2001820A10BEB2A69
:1005E000831606128312061283168612831286164B
:1005F0000130A20004200330A100C630A200182060
:10060000A10BFD2A83168612831286128316061307
:10061000831206170130A20004200330A100C63067
:10062000A2001820A10B0F2B8316061383120613AA
:100630001330A2000420A00AC52AA0012008463CCD
:10064000031C732B83160611831206150230A200B9
:1006500004200330A100C630A2001820A10B2B2BD0
:1006600083160611831206118316861183128615CE
:100670000230A2000420831686118312861183168D
:100680000612831206160230A100F830A2001820CC
:10069000A10B452B831606128312061283168612AF
:1006A000831286160130A20004200330A100C63058
:1006B000A2001820A10B572B8316861283128612D4
:1006C00083160613831206170130A200042064303B
:1006D000A200182083160613831206131330A200FB
:1006E0000420A00A1E2B83160811831208158316F6
:1006F0000810831208148316881183128811831638
:0A070000881083128810352863006A
:02400E00723FFF
:00000001FF
;PIC16F877A
;CRC=798A  CREATED="22-ago.-18 02:23"
