:1000000003308A00202B0000AC0CAC0CAC0C1F3071
:10001000AC05AC08031D092808002908AF00280812
:10002000AE002708AD002608AC00B301B2017A305B
:10003000B1008930B0002C0803198B28B4003008B7
:1000400003198B28B40703182C287F30B402031C33
:100050008B2803198B2830288130B40703188B288C
:100060003408F700F801F901FA012D08B800B817B3
:100070002E08B7002F08B6001830B400B501361CA2
:1000800059283308FA07031C4B28F90A031D4B288B
:10009000F80A0319B5173208F907031C5228F80AA1
:1000A0000319B5173108AE00AE172E08F80703186C
:1000B000B517B50DF80CF90CFA0CB80CB70CB60C5A
:1000C0000310B40B3E280130F70703188B28F81BE8
:1000D0007028B80DFA0DF90DF80DF70303198B28E8
:1000E000B81F8128FA0A031D8128F90A031D8128F7
:1000F000F80A031D8128F80CF90CFA0CF70A031909
:100100008B282D08B5003108B506B51F8928F817CA
:100110008F28F8138F28F701F801F901FA017A08FE
:10012000AF007908AE007808AD007708AC002F0862
:10013000B3002E08B2002D08B1002C08B000B701A2
:10014000B6013430B5008630B400300803196A298E
:10015000BC00340803196A29BC02031CB4287F3090
:10016000BC0703186A29BA288130BC02031C6A291B
:1001700003196A293C08F700F801F901FA01BB01EB
:100180003108BA00BA173208B9003308B80019307C
:10019000BC003708B8020318DD280130B902031883
:1001A000DD28BA020318DD28BB020318DD28BB0ACC
:1001B000BA0AB90A3708B8070F293608B90203186E
:1001C000F8280130BA020318F828BB020318F828EF
:1001D000BB0ABA0A3608B9073708B807031C0F2943
:1001E000B90A031D0F29BA0A031D0F29BB0A0F29DB
:1001F00035088038BA0203180E290130BB020318F3
:100200000E29BB0A35088038BA073608B907031C1F
:10021000EC28BA0A031DEC28BB0AEC287A14BC0BA4
:1002200012291D290310B80DB90DBA0DBB0D03100D
:10023000FA0DF90DF80DBD0DC9283D1C2529031037
:10024000F80CF90CFA0CBD0C2829F70303196A29DC
:10025000BD1B51290310B80DB90DBA0DBB0D3708E0
:10026000B80203183D290130B90203183D29BA022A
:1002700003183D29BB02031C60293608B902031884
:1002800048290130BA0203184829BB02031C60291F
:1002900035088038BA02031851290130BB02031C0B
:1002A0006029FA0A031D6029F90A031D6029F80A6A
:1002B000031D6029F70A03196A29F80CF90CFA0CD6
:1002C0003108BC003508BC06BC1F6829F8176E2928
:1002D000F8136E29F701F801F901FA017A08AF0065
:1002E0007908AE007808AD007708AC0083102F08BD
:1002F000B3002E08B2002D08B1002C08B000B701E1
:10030000B6011630B5008830B40080308318B506C9
:10031000BA01BB013108B9003508B9063008031924
:10032000752AB800F700340803197E2AB8020319A9
:100330001A2A031CD8293508BE00BE173608BD008E
:100340003708BC00BB010310BE0CBD0CBC0CBB0CC1
:10035000B80BA229B91FAF293A14922A3A103810C3
:100360003A16333084008313A72A3A12B91BC229E4
:10037000381CCD29BE0CBD0CBC0CBB0CF70A0319F4
:100380008D2ACD29BE1BD0290310BB0DBC0DBD0D80
:10039000BE0DF70303198D2AC2293A173A2A3A13D8
:1003A0003108B900B91FD629BE17862ABE13862A7E
:1003B0003408B800F7003008B8023108BE00BE1794
:1003C0003208BD003308BC00BB010310BE0CBD0CDD
:1003D000BC0CBB0CB80BE429B91FF129BA14922A42
:1003E000BA103810BA16373084008313A72ABA120D
:1003F000B91B042A381C0F2ABE0CBD0CBC0CBB0C4C
:10040000F70A03198D2A0F2ABE1B122A0310BB0DEF
:10041000BC0DBD0DBE0DF70303198D2A042ABA17B2
:100420003A2ABA133508B900B91F182ABE17862A06
:10043000BE13862A3508BE00BE173608BD00370831
:10044000BC00B91F272ABE133A15922A3A11BB01E4
:100450003810333084008313A72AB91B502A31087F
:10046000B900381C3A2ABE0CBD0CBC0CBB0CF70AF8
:1004700003198D2ABB1F4B2ABC0A031D4B2ABD0A38
:10048000031D4B2ABE0A031D4B2ABE0CBD0CBC0C1F
:10049000F70A03198D2A3A1BCF29BA1B112A6F2A92
:1004A0008030BE06BE1F582A922A3508B900652A38
:1004B0003108B900BE08031D652ABD08031D652A61
:1004C000BC08031D652AF701862ABE1B6F2A03108C
:1004D000BB0DBC0DBD0DBE0DF70B652A8D2AB91FD6
:1004E000732ABE17862ABE13862A3408F7003508F9
:1004F000BE003608BD003708BC00862A3008F70069
:100500003108BE003208BD003308BC003E08F800C8
:100510003D08F9003C08FA00C52AF701F801F90185
:10052000FA01C52ABB01BC09BD09BE09BB09BB0A4A
:10053000031DA02ABC0A031DA02ABD0A0319BE0A76
:100540003A18AE29BA18F0293A19262A552A00086D
:10055000BC07031CB12ABD0A031DB12ABE0A031938
:10056000381484030008BD07031CB92ABE0A031906
:10057000381484030008801F803ABE07031838141B
:100580003A1AB529BA1AF7292D2A7A08AF0079083C
:10059000AE007808AD007708AC008E30F7002C086C
:1005A000F7022D08F9002E08F800F917F7080319CB
:1005B000E42A0310F908031DE02AF8080319E42AC5
:1005C000F90CF80CF70BD92AAD1FEB2AF809F90939
:1005D000F80A0319F90A7808AB00AA012A08323C84
:1005E000031C022B83160610831206142B08AC0082
:1005F000042083160610831206103830AC00042045
:10060000AA0AEE2A08008E30F7002308F800220814
:10061000F900FA01F808031D172B7908F800F90111
:100620000830F702F808031D172BF7011F2B0310E2
:10063000F81B1E2BF90DF80DF703172BF813080004
:1006400003081F39830083161F149F141F159F1161
:1006500007309C0083138312A901A801A701A601FA
:100660000D20A901A8013430A7008530A6000D2077
:10067000A901A8013430A7008630A6000D20A901E9
:10068000A8010730A7008630A6000D20A901A80107
:100690003430A7008530A6000D20A901A801343010
:1006A000A7008430A6000D20A901A801A701A6017A
:1006B0000D20A1012108B43C031C762BA3012108C5
:1006C000A20003237A08A5007908A4007808A300F3
:1006D0007708A2007A08A9007908A8007808A7007E
:1006E0007708A6000D200A30A1075A2BB430A100CC
:1006F000A3012108A20003237A08A5007908A40019
:100700007808A3007708A2007A08A9007908A80051
:100710007808A7007708A6000D200A30A102782BE0
:040720002C2B63001B
:02400E00723FFF
:00000001FF
;PIC16F877A
;CRC=6D07  CREATED="30-jul.-18 10:55"
