:1000000000308A0029280000213084008313000872
:10001000031917280230F800F701F70B0D28F80B29
:100020000C289730F700F70B1328800B0A280800DC
:100030000830A202031C28282230840083130310F6
:10004000800C00080319282826280000800B25288A
:10005000080003081F39830083161F149F141F15FF
:100060009F1107309C0083138312A0012008C83C15
:10007000031C71288316061083120614831686103B
:1000800083128614831606118312061583168611B1
:100090008312861583160612831206160130A100FC
:1000A00004200330A100C630A2001820A10B532861
:1000B000831606108312061083168610831286108C
:1000C0008316061183120611831686118312861178
:1000D00083160612831206121330A1000420A00A10
:1000E0003628A0012008463C031CAD2883160610C4
:1000F0008312061483168610831286148316061143
:10010000831206158316861183128615831606122E
:10011000831206160130A10004200230A1009430A1
:10012000A2001820A10B8F28831606108312061038
:100130008316861083128610831606118312061109
:1001400083168611831286118316061283120612F5
:100150001330A1000420A00A7228A0012008C83C86
:10016000031CE528831606108312061483168610D6
:1001700083128614831606118312061583168611C0
:100180008312861583160612831206160130A1000B
:1001900004206430A2001820831606108312061073
:1001A0008316861083128610831606118312061199
:1001B0008316861183128611831606128312061285
:1001C0001330A1000420A00AAE28A0012008463C5C
:1001D000031C212983160610831206148316861029
:1001E0008312861483160611831206158316861150
:1001F0008312861583160612831206160130A1009B
:1002000004200230A1009430A2001820A10B032981
:10021000831606108312061083168610831286102A
:100220008316061183120611831686118312861116
:1002300083160612831206121330A1000420A00AAE
:06024000E62835286300EA
:02400E00723FFF
:00000001FF
;PIC16F877A
;CRC=B3AC  CREATED="17-jul.-18 21:35"
