:060000000A128A110E280D
:10000800FE00030EF1000A08F2007F08F3000A124E
:100018008A111B2D0A128A111128F701F801F9011A
:1000280083010A128A11B12C831203133308803911
:10003800B8003808BD003308B8003807B9003908D7
:10004800C300B21F282829282A2843144308031963
:100058002E282F283E28430A031D332834283C28FD
:100068000030B3000030B2000030B1000030B00002
:10007800B21746280030B3000030B2000030B1009B
:100088000030B00037088039B8003808BD06370896
:10009800B8003807B9003908BE00B61F54285528DB
:1000A80056283E143E0803195A285B286A283E0A37
:1000B800031D5F28602868280030B7000030B600AC
:1000C8000030B5000030B400B61772280030B70011
:1000D8000030B6000030B5000030B4003E08031907
:1000E800762877287C284308031D7B287C288528C8
:1000F8000030B3000030B2000030B1000030B00072
:10010800782B3008B8003808F40036080A128A112B
:100118008D250A128A11750883120313C900740801
:10012800C8004808B800B901BA01BB013B08C200C1
:100138003A08C1003908C0003808BF004908B800AB
:10014800B901BA01BB013B08C7003A08C600390823
:10015800C5003808C4003108B8003808F40035086C
:100168000A128A118D250A128A117508831203133F
:10017800C9007408C8004808B800B901BA01BB0131
:100188003808BF07390803110318013E0319CD28A1
:10019800C0073A0803110318013E0319D428C10700
:1001A8003B0803110318013E0319DB28C20749085D
:1001B800B800B901BA01BB013808C40739080311EE
:1001C8000318013E0319E928C5073A080311031863
:1001D800013E0319F028C6073B0803110318013E26
:1001E8000319F728C7073208B8003808F40034089C
:1001F8000A128A118D250A128A11750883120313AF
:10020800C9007408C8004808B800B901BA01BB01A0
:100218003808BF07390803110318013E03191529C7
:10022800C0073A0803110318013E03191C29C10726
:100238003B0803110318013E03192329C207490883
:10024800B800B901BA01BB013808C407390803115D
:100258000318013E03193129C5073A080311031889
:10026800013E03193829C6073B0803110318013E4C
:1002780003193F29C7070830B8000310BF0DC00D88
:10028800C10DC20DB80B41293108B8003808F40077
:1002980034080A128A118D250A128A1175088312E8
:1002A8000313C9007408C8004808B8004908B90011
:1002B800BA01BB013808BF07390803110318013E0A
:1002C80003196729C0073A0803110318013E0319E7
:1002D8006E29C1073B0803110318013E031975294C
:1002E800C2073008B8003808F40035080A128A1125
:1002F8008D250A128A11750883120313C900740820
:10030800C8004808B8004908B900BA01BB01380854
:10031800BF07390803110318013E03199429C007C0
:100328003A0803110318013E03199B29C1073B082A
:1003380003110318013E0319A229C2070830B800A7
:100348000310BF0DC00DC10DC20DB80BA429300894
:10035800B8003808F40034080A128A118D250A12E8
:100368008A11750883120313C9007408C800480865
:10037800B8004908B900BA01BB013808BF073908F5
:1003880003110318013E0319CA29C0073A080311CB
:100398000318013E0319D129C1073B0803110318AB
:1003A800013E0319D829C2073108B8003808F400FB
:1003B80036080A128A118D250A128A1175088312C5
:1003C8000313C9007408C8004808B8004908B900F0
:1003D800BA01BB013808C407390803110318013EE4
:1003E8000319F729C5073A0803110318013E031931
:1003F800FE29C6073B0803110318013E0319052A05
:10040800C7073208B8003808F40035080A128A11FC
:100418008D250A128A11750883120313C9007408FE
:10042800C8004808B8004908B900BA01BB01380833
:10043800C407390803110318013E0319242AC50704
:100448003A0803110318013E03192B2AC6073B0873
:1004580003110318013E0319322AC7073208B800EE
:100468003808F40036080A128A118D250A128A11F2
:10047800750883120313C9007408C8004808B80037
:100488004908B900BA01BB0108300310B80DB90D0D
:10049800BA0DBB0DFF3E031D492A3808C4073908A9
:1004A80003110318013E03195A2AC5073A08031114
:1004B8000318013E0319612AC6073B0803110318F4
:1004C800013E0319682AC7073F08B8004008B90069
:1004D8004108BA004208BB0018300310BB0CBA0C24
:1004E800B90CB80CFF3E031D712A3808C407390837
:1004F80003110318013E0319822AC5073A0803119C
:100508000318013E0319892AC6073B08031103187B
:10051800013E0319902AC7070830B8000310BF0D21
:10052800C00DC10DC20DB80B922A43083E07B80092
:10053800B901B90D3808823EC80039080318013ED0
:10054800FF3EC900C42A0130B8000310C40DC50D10
:10055800C60DC70DB80BA92AC21FB32AB42AB52ADB
:1005680044140130B8000310BF0DC00DC10DC20DF9
:10057800B80BB72AFF30C8070318C90AFF30C907E4
:10058800C61FC72AC82AA72ABE01C21FCC2ACD2A3D
:10059800E92AFF303F05B800FF304005B900FF30B9
:1005A8004105BA007F304205BB003B083A043904D4
:1005B80038040319E02AE12AE42ABE01BE0AE92A1E
:1005C800441CE72AE82AE92AE12A3E080319ED2A09
:1005D800EE2A1F2B0130C407003003180130C5076D
:1005E800003003180130C607003003180130C70770
:1005F800471CFF2A002B1F2B4408B8004508B900E8
:100608004608BA004708BB000130BC003B0DBB0CD4
:10061800BA0CB90CB80CBC0B0A2B3B08C7003A083B
:10062800C6003908C5003808C4000130C8070318D7
:10063800C90A0030C9074908803AFF0080307F02A4
:10064800031D282BFF304802031C2B2B2C2B372B88
:100658007F3083120313C7008030C6000030C50006
:100668000030C4006C2B831203134908803AFF0042
:1006780080307F02031D422B013048020318452BAE
:10068800462B522B003083120313C7000030C600DC
:100698000030C5000030C400BD016C2B8312031369
:1006A8004808B8003808C300FF30C405FF30C50546
:1006B8007F30C6050030C705431C632B642B652BB0
:1006C800C6174308B8000310380CB9003908C7002A
:1006D8003D08B8003808C7044708B3004608B20008
:1006E8004508B1004408B000080083120313AA00AB
:1006F8002A080319802B812B952BA51F842B852B6A
:10070800952B2209AC002309AD002409AE00250968
:10071800AF00AC0A0319AD0A0319AE0A0319AF0AF0
:100728009D2B2508AF002408AE002308AD00220841
:10073800AC002508240423042204031DA42BA52BA4
:10074800AE2B0030A5000030A4000030A30000301C
:10075800A200342C9630A6002608AB00C02B01302E
:10076800A6002608AB0701300310AF0CAE0CAD0C89
:10077800AC0CFF3E031DB82BFE302F05031DC52B07
:10078800C62BB32BE22B0130A6002608AB0701309D
:10079800AC07003003180130AD07003003180130F2
:1007A800AE07003003180130AF0701300310AF0C5B
:1007B800AE0CAD0CAC0CFF3E031DDA2BFF302F0541
:1007C800031DE72BE82BC72BF42B0130AB020130BC
:1007D800A6000310AC0DAD0DAE0DAF0DA60BED2BA5
:1007E800AE1BF72BF82BFE2B02302B020318FD2B28
:1007F800FE2BE92B2B18012C022C0A2CFF30AC0500
:10080800FF30AD057F30AE05FF30AF050310AB0CF0
:100818002B08A600A701A801A90118300310A60DEE
:10082800A70DA80DA90DFF3E031D122C2608AC0428
:100838002708AD042808AE042908AF042A080319BC
:10084800262C272C2C2CA51F2A2C2B2C2C2CAF1714
:100858002F08A5002E08A4002D08A3002C08A2002C
:1008680008000310831203134C0D4D0DCE004E08E3
:10087800D4005408031D412C422C4B2C0030CD00D1
:100888000030CC000030CB000030CA00B02C4A0841
:10089800CE004B08CF004C08D0004D08D1001F30C7
:1008A8000310D10CD00CCF0CCE0CFF3E031D542CE2
:1008B8004E08D2005208D300CC17FF30CA05FF30CB
:1008C800CB05FF30CC050030CD059630D402D41FBF
:1008D8006E2C6F2C892C5408803A973E0318752C7F
:1008E800762C772C422C01300310CD0CCC0CCB0C81
:1008F800CA0CFF3E031D782C0130CE004E08D407E9
:10090800031D872C882C772CA02C20305402031C24
:100918008E2C8F2C9B2C422C0130CE000310CA0D3C
:10092800CB0DCC0DCD0DCE0B922C0130D40254083A
:10093800031D9F2CA02C902C53080319A42CA52C24
:10094800B02CCA09CB09CC09CD09CA0A0319CB0AAC
:100958000319CC0A0319CD0A08008316031386016C
:10096800FF3085000A128A11B6250A128A1104304E
:10097800831603138100FB308312031381008B1647
:100988008B170B1704300A128A1158250A128A117C
:10099800740883120313D5007508D600D701D8014F
:1009A8005808A5005708A4005608A3005508A20037
:1009B80000300A128A1179230A128A11831203134A
:1009C8002508B7002408B6002308B5002208B4009B
:1009D8003D30B3001F30B200BE30B1007730B000F8
:1009E8000A128A1118200A128A1183120313330873
:1009F800CD003208CC003108CB003008CA000A12FA
:100A08008A1135240A128A11831203134B08DA005B
:100A18004A08D900AA30D50059085502DB005A09FE
:100A28000318013EDC00C62C0A128A110E280B1D81
:100A38001E2D1F2D2A2DFC308312031381000B114C
:100A48000130F7070318F80A0030F8077808803AE9
:100A5800F000831203135C08803A7002031D362DE0
:100A68005B087702031C392D3A2D3D2D83120313A1
:100A780006147808803AFF0080307F02031D462D57
:100A8800C8307702031C492D4A2D4F2D83120313BA
:100A98000610F701F8017308FF0072088A00710E4A
:100AA8008300FE0E7E0E0900F60008307602031C55
:100AB8005E2D5F2D622DF401F5018C2DC53083125A
:100AC8000313A00020089F057608A0000230031039
:100AD800A00DFF3E031D6B2D0310200DA100210862
:100AE8009F040D3083120313A100FB30A000A00B5C
:100AF8007B2DA10B7B2D831203131F151F19852D29
:100B0800862D822D1E08F500831603131E08F40097
:100B1800080083120313A600A201A3017408A00011
:100B2800A1012008A4002108A500261C9C2D9D2DAC
:100B3800A32D2408A2070318A30A2508A307013038
:100B48000310A40DA50DFF3E031DA42D0310A60C34
:100B58002608031DB02DB12D992D2308F500220874
:100B6800F40008004130831203139F00C03083163D
:060B780003139F000800BA
:08400000FF3FFF3FFF3FFF3FC0
:02400E00723FFF
:00000001FF
