:020000040000FA
:020000000528D1
:040002000034003492
:06000A00831606309F0082
:1000100086011F30850083128601051C10281C28CC
:10002000851C13282128051D16282628851D19281A
:100030002B28051E0D2830280614352006103520E3
:100040000D2806143A2006103A20102806143F20E6
:1000500006103F20132806144420061044201628BA
:1000600006144920061049201928A6308C008C0B54
:1000700037280800F3308C008C0B3C280800C8306F
:100080008C008C0B412808008C308C008C0B46288F
:0C009000080000308C008C0B4B2808008E
:00000001FF
